:020000040000FA
:080000008A1500278A11FC2B70
:08000800F000030E8301F1007A
:100010000408F2000A08B0008A111108F3008C18D5
:10002000D6260D1B4B2630088A0072088400710EFC
:080030008300F00E700E0900C0
:08003800761B4728761A842389
:10004000402077087B06031DE601FB067F115A1747
:100050009820EC01E11E4F23031932287F1D6119FE
:1000600075280800E11A40207F155A13F8227F1DD9
:100070002F28DA12F700982075285A1B422808000A
:100080007608FA007808B4007908B5000800D91598
:1000900077084D0603196113761E84234F23F61A41
:1000A000761E5C2803195728553980075F28770882
:1000B0008A15A9228A115F28FF3AE01F8005E01304
:1000C000DA17DA188D287F196A2898207F196119A4
:1000D000080075289820DA166119080040305A1F68
:1000E00070303623DA135A1F98207908780677067D
:1000F000F6137606F400F40E7406F400F40CF40C17
:10010000F4060130F418F4067418F6177F18080086
:100110005230761B41308A15FB2C98205030F60067
:100120000430F700AA30F8003908F900DA10752811
:10013000F71BB92B00308A007708A13E03188A0A02
:1001400082003E2975299229C32BA729B029B629F7
:10015000B92BC829D529DB2AE92ADB2AE92AE9298A
:10016000C42BF729C32BC42BC42B272AC42BC42B85
:10017000B92BC42BC32BC42B302A3A2AC42BC42B33
:10018000C42BC42BC42BC42BC42BB92BB92BB92B18
:10019000B92BB92BB92BB92BB92BB92BB92BB92B3F
:1001A000B92B462A502AC42BC42BC42BC42BC42BD6
:1001B000C42B5A2A7B2AC42BC42BC42BC42BC42B7C
:1001C000C42BB92BB92BB92BB92BB92BB92BBE2BFF
:1001D000A12AC42BC42BC42BC42BC42BC42BC42BCB
:1001E000C42BC42BC42BC42BC42BC42BC42BC42B97
:1001F000C42BDB2AE92ADB2AE92AB92BB92BB92B34
:10020000B92BB92BB92BB92BB92BAA2ABE2BC42BCE
:10021000C42BC42BDB2AE92ADB2AE92AB92BB92B08
:10022000B92BB92BC42BC42BC42BC42BC42BC42B6C
:10023000C42BC42BC42BC42BC42BB92BCA2AD02A41
:10024000C42B603027297A08C038F61F7F3976061C
:10025000031D7F15F60600347806031D7F15F8068A
:100260000034F61E08007A1E2129232134082C218F
:1002700035087906031D7F15F9060034761B5529CC
:10028000F2226209EE38ED1EFD39F4000301C41BB1
:10029000E11901386D1A02388316DA1F10388312FB
:1002A000F405FF3A780574042C29F61A0800790839
:1002B000B500413903195912031D591A63295916FA
:1002C0000530CD0061174D30DA2379080839463002
:1002D000DA23790804395730DA23790802394830AB
:1002E000DA23780802394330DA2B761B8E29F22282
:1002F000611D7F197D29C41B08007616C41BE11DF2
:1003000087294208031951082C2143083929030180
:10031000C41F44082C21C41F45083929F61E0800B3
:10032000C4170800761F9A29013034052C2135089E
:10033000392123297818DD16631A080079080B3C47
:100340000319E31B0800E317DD1A63170800761F83
:100350000800AA307802031D080023213908392932
:10036000761BC42B5F1A5F1B0800152A761F080036
:100370000301F61E761AC0297908FC38601BE005D7
:1003800061060339E10623216013780803382C291C
:10039000761BB92B8316DA1B7F19CF29D329761642
:1003A0002C215B08392183120800761F0800DF1911
:1003B000DB29F61E080023215F1E3A082C215F1E50
:1003C0003B0839215F13E31ADF1D08005F1DDA14B3
:1003D0000800761B0800F222D71B7F19F129611D46
:1003E000080076165708D71B64302C213929761B54
:1003F0003329DF195F1B08005F1A152A3B087902B1
:10040000F4003A08031C013E7802031CFF3A031D66
:100410001C2A031CF409E0307405031D1C2A5F1913
:1004200008005F15DF134F30DC2B5F123A083B04E6
:100430000319242A5F1708005F1DDF0A5F1D0800EB
:10044000631B242ABA01BB01DF014F30E82B761F62
:100450000800BF1B312923213E082C213F083929E0
:10046000761B591C0800D918212923213C082C216E
:100470003D083929761B6D1D0800611A21292321A9
:10048000031730082C21310803133929761F08007F
:100490006012F61AC42B7808CF007908CE00C42B5E
:1004A000761F0800E012F61AC42B7808D1007908EC
:1004B000D000C42B761B682AC008761E601803196A
:1004C00008001030272140082C21410839213834F8
:1004D0006010F61E3D28761E742A23214008031959
:1004E0004F082C2141083929C00803190800C00110
:1004F000C1010F309B2A761B892AC208761EE0189C
:10050000031908001030272142082C214308392103
:100510003934E010F61E3D28761E952A2321420824
:10052000031951082C2143083929C208031908006E
:10053000C201C3011130FC01FD018A1563228A1139
:1005400008000310460C7F1D0318761B0800761662
:1005500039212C29761F0800DF19B02AF61E080061
:10056000DF1AD50E7F11C4237F19BD2A2321550E12
:10057000033939216A1B79082C21631BDF1EC82A25
:10058000550E5506031D5F1BC82A5F16DF155F1742
:10059000DF120800761F0800232103302C2139299F
:1005A000761FE31F080063137808143C0319E31651
:1005B000031C63170800761F08007F19DA1FC42B7D
:1005C0007808F61E03190800E700770ACD006117C6
:1005D0000800761FBE2B7F19E80A67086802031C13
:1005E00061170800761B08004F23FF3A80050800BA
:1005F0000030F600F801F901E0080319192BB101E8
:1006000009235023031D072B3109E005FC2A750837
:1006100008003117601B06343116601A3034B116E9
:10062000E01A313431146018612AB114E018822ABA
:100630000034611F202BE0176808F8004D080800FF
:10064000E0014C08031D3F2B5A1A352B2030FE00C9
:10065000DA1AC90A49081F39E03E8A11DB258A11D6
:10066000031D0800FE0B292B5A167F117A04F60091
:100670003408F8003508F9007B08F700080010304E
:10068000F6007430FE00F4010314472BFE0AF40D4B
:1006900074084C050319462BCC067E080800770821
:1006A000F500750CF400740C1F39BA3E8400F51B7C
:1006B0000034033075180C30F400F518F40E0009FE
:1006C0007405F40E740E0800C334C1348F349F34A3
:1006D0000234003403340334C03420340034003492
:1006E00000340034F0340F340034043407340C3454
:1006F0001234133413341534173419341A341A34A9
:100700001A341A341A341E34770D031CF61A0800F2
:10071000F400740E0F39F40077080739FE00FE0A62
:10072000AA237406F4067406B10103100318B10A73
:10073000F40CFE0B962B031C0800B123B107310DFE
:10074000103E8400831778088000840A79088000AE
:100750008313080003308A007408643E03188A0A71
:100760008200F40003308A007408743E03188A0A79
:100770008200DA1B7F1D761F0800CA2BDA1B7F1D43
:10078000761F0800C92BF222DA1B7F1D761F080096
:10079000B401B50177088A1558238A11031D080092
:1007A000232183170008350439218413000883139B
:1007B00034042C290319E82B5F3E84000014FE301A
:1007C000000503195434FF3A8605F938E20554341C
:1007D0005F3E840000100008031942348604063985
:0407E000E2044234B9
:0C07E4009A08E91AF82BE901D12C6B14DB
:1007F000EB148A1500278A110313831286018316CE
:1008000060308F0007309B00E7308500273086007E
:1008100003300E0640308E185030831203196B0ED1
:10082000031E6030FF00031EFF15831603308E0089
:1008300019309900181518129816D5308100F93022
:1008400092008312003092008E018F0131309000AF
:1008500098019817FF1D322C2B308A15D0248A114D
:100860006119FF1120300025A030002583171030BA
:100870000025BF17C417D71781010B1164000B1D8A
:100880003E2CFF1D181641309F000030DB25EA008A
:10089000E03883169D00DA170E30DB25ED008A154F
:1008A000E3228A11D925C000031D6014D925C10097
:1008B000D925C200031DE014D925C30083160D17E6
:1008C0008C141C0983010D13C039DB00FF30860036
:1008D0005B1BF739DB1BEF3985000B17FF1D8B17EF
:1008E000C9097030E0041430CE005030CF000A3017
:1008F000D0005A30D1003D30D3000D30DB25E3006D
:100900001030FE00FC01D030B1003108DB25FD00C5
:100910007C08FD080319972CFC000310FD0C031C38
:10092000952C8A1150238A1180047C0A892C073067
:10093000FC04FC0AB10AFE0B852C15308A15D02464
:100940008A11F4010630DB258A15D4208A11F40AB5
:100950000730DB258A15D4208A11F40A0830DB25FC
:100960008A15D4208A11F40A0930DB258A15D4208F
:100970008A11F40A0A30DB258A15D4208A11F40A78
:100980000B30DB258A15D4208A110130DB25D800F5
:100990008A1586268A11FF1DD12C4D308A11DC2341
:1009A0008A116400CB08031DBD25FF19D12C5A18EC
:1009B0002025DD184D250B1960250C1886250C1BEC
:1009C000E5258A15B3268A115919A825661BF72B28
:1009D0008C1ED12C1819F22B981CF12C18121816F9
:1009E000D9160825DA1DD12C8A150020B601DA1196
:1009F0008A150038031DC724D1248A114925D12C1A
:100A000084008001840A04097039031D012D080047
:100A10003608203E84001A08DA19080080000A3AD5
:100A200003190800073A03191A2D3608013E831CE2
:100A3000B6000800B608031908008001DA1508009E
:100A40008A15F8248A115A108A111C208A117F18DD
:100A5000322D611D342DDB1677087B06031D492DD1
:100A6000D40A5412E601492D0130DC00DB155B1677
:100A700058308A11DC23761F4230DC23DD11761BCF
:100A8000DD152230B80083168C148312F9309100E2
:100A900012158A1512258A110800DD105D1A5D1FD6
:100AA000552D5608803C031C08005D085E06503931
:100AB00003190800DE068A152F26D0248A110800A3
:100AC0000B11D30B6E2DD919E60AE1173D30D30077
:100AD0006C0FEC0005306C0203188511E91EE90A61
:100AE000121D1F158A15FF18E1228A1564090319C2
:100AF000E401E408031D07258A11E508031DE50B41
:100B0000080045308A11E8238A1108000C10D21F12
:100B10009425DF195F1908008030DF065F054F302C
:100B20008A11DA238A110800D203D21F0800DC30B0
:100B30008400001CBF17801CC4178316001DDA1721
:100B400083128A1507308005031DAA218A11080027
:100B50004B083C3C031C08008A151F258A112230D3
:100B60004A020318B82D2C308A15E0248A11080097
:100B700059118A15D1248A1108000C1E0800370863
:100B8000903E84008317000883139900B70A503001
:100B900037060319B701CB030800031783168C1C13
:100BA0000800831203138C1ECD2DF500082575084F
:100BB000CD2D03170D0ACD258C0183128D008316D0
:100BC0000C1483120C08031308000C131E0856069D
:100BD000D60656065602031C003CFC39031D1B2E8C
:100BE0005608803C031C052E7A3C031C032E611D15
:100BF0000800343C031C1D2E6111E1114E308A1592
:100C0000D0248A110800E115062EE11161191D2E6C
:100C1000611536308A15D0248A1112118030DD0515
:100C20005B17631EE301DF01BA01BB0150308A117B
:100C3000E8238A110800611D08007F1CE11F0800DD
:100C40000030F600F801F901FA01E1123226F7004E
:100C50008A1121208A11761A84237708FB00E11378
:100C60008A11342D06308A005408393E03188A0A46
:100C70008200003419340134492E11341B341C34E1
:100C80000E34492E00341934013438343934492EA5
:060C90001234E1160034ED
:0A0C96005D0983161C0683120D137E
:100CA0005B06C039DB06611980390038031908007A
:100CB000403903195D1D5F2EFF30E4000800031D5D
:100CC0005D19672E5D15B80803195B1A822EB808E6
:100CD0000319A32E03305C02031C472F5B0D5D1923
:100CE000803EB80B902E03184C2F5B18502F5A14CF
:100CF0008A115230E8235430E823E8238A115D1129
:100D00001211A02EB8015B121830DD1B0830050649
:100D1000183985068A115830E823E8238A11992E5C
:100D200001300318DB06F90DF80DF70DF60DF90685
:100D30005B11DC01730891020630031C91028C10D8
:100D40006430810008001219B02EE408031DA02EA3
:100D5000273091001215DC0183168C148312A02E0B
:100D60000A305C020318C82E5B0D5D19803E031823
:100D7000A02EDC080319802E8A115230DC235D1D61
:100D80004230DC238A112130B8005B105B11992EB0
:100D900032305C020318992E5D195D1E992E5D1B81
:100DA0005B1F992E4030DD06DB06992E8C10DC0A85
:100DB0005B1AEE2EB808031DEB2E5C08143C0319D9
:100DC000182F50305C02031C080012115D115D18D1
:100DD000DD145D100800DC194E2F08005C180800B7
:100DE000B8080319092F5D09DB19183A0506DD1D3E
:100DF0000839DD1910398506DC18152FDB110314AD
:100E0000F90DF80DF70DF60D0318DB15DC01B8032D
:100E1000080012115B12DD19DB168A115830E82325
:100E20005430E823E8238A1108000830DB06080064
:100E30005B0D5D19803E031C080040305D1D803055
:100E4000DD06DB065D1D3A2F5D147F18362FDD1E93
:100E500008005D0950390319080010308506DD06C9
:100E60005D0550308A11DA238A1108005D11DB1FFD
:100E70000800992E7F1C0800DD1B10305D0610391C
:100E800003190800DD065D14302F5B15A02E5B19D9
:100E9000EA1A452F0130512F0230512F0330512FC4
:100EA0000430E4080319E4005B0D5D19803E031C67
:100EB0001211B801DC015B128A115830E82352305C
:100EC000E823E8235430E8238A11640903196E2FBC
:0E0ED00045308A11DC238A117A30E500A02E0D
:020EDE00031DF2
:100EE000862F07308A006E081F397A3E03188A0A57
:100EF000EE0A8200892FED2F952F0034892FEB2FDA
:100F0000982F892FED2FA52FA72FAB2F0314C227C2
:100F10000034851383168513C6278316851783121D
:100F2000C927851B862FC72701344430EE2700349C
:100F3000DA277408103A03190134EE17383A031906
:100F400001340A3A03190134862FBE30EE2FDA2716
:100F50007408EF000134DA27EE1BB42F740C6F0C09
:100F6000FC00FD01FD0CBE2F6F0EF039FD00740E6C
:100F7000F039F4006F0E0F397404FC00553A031970
:100F8000862F03108A15D021EE010134C727E830DF
:100F9000CA2F363083168C10120283120A3E91003B
:100FA00012158C1CD12F12118C100800D827D827AD
:100FB00000000800DB27DE27DE27DE2785138316E7
:100FC0008513031085178312D727851B0314F40C90
:100FD0002D30CA2708003330EE2FCC30F400F02734
:100FE000F327F327F327F40C8513831685130318CF
:0E0FF00085173230CA27831685178312013405
:10100000D91A402804303602031C663422083D3CBD
:10101000031D663420088A15E0242108E0243A30B4
:10102000E0242030E02408308A0020082106F40063
:10103000E039031DA42C7408203E03188A0A82009C
:1010400042284D2855285D2862286A28F1287228F0
:10105000BA28BA28BA2879286334BA28BA28BA280C
:101060007E288928912863349628633463349B282A
:10107000633463346334A028A828AD286334B528CA
:10108000D91275342008543A03192B29153A03193B
:10109000862A0C3A0319032B63342008523A0319A9
:1010A000B42B013A0319152B63342008503A031965
:1010B000112B1B3A0319782B63342008503A03197B
:1010C000132B63342008563A0319442A053A0319AE
:1010D000672963342008443A03199D2A123A0319F8
:1010E000B429F12820084F3A0319AF2B1B3AF92AEB
:1010F00063342008433A03193D2A63342008533AE5
:101100000319F129143A0319CE2A043A03199B2929
:1011100063342008433A03194B2B103A03195F2913
:1011200063342008463A0319B62A63342008443A47
:101130000319E72963342008543A03192629633434
:1011400020084F3A0319C3291C3A03198129633433
:101150002008553A0319642B63342008493A0319CF
:10116000A22B193A0319DE2B63342008483A0319DD
:101170002D2A633420084C3A031D63343608043C9E
:10118000031D66342308F4005A3C193C031C6C34DC
:1011900041302102063E6D2223088A15E0248A157B
:1011A00041302102F4002308FC000830F4184030DC
:1011B00074190230B10003107418B10DA03084000E
:1011C0001A30FE0031098005840AFE0BE3287C08F2
:1011D0005F3E8400310880047C08001C03158A11DE
:1011E000DA2B2008473C031D63343608043C031DFA
:1011F000663430302302F400F839031D6634F030D1
:10120000211808295805703C03195910F40E0F30A5
:1012100058057404D800F40001306D226217E213FF
:10122000C030211CE2068A158B265808211C580E56
:1012300007398A15DE2C03103608043A031D66347C
:101240002308313C013C031808006C343124031896
:10125000080001302F293124031808000330312100
:10126000CE2955060F39D5060030631F3C293A08B0
:101270003B04031D5F161030DF057D08BB007C08B2
:10128000BA00DF155F17DF16B901E31ADA143B0461
:1012900003195B29E31E08003A087D247D08B90084
:1012A0003B087D247C08B907FD1BB90A3A08FC00FD
:1012B0003B08FD0008005F165510D51008003124CA
:1012C000031808000319663402306322CE2935243E
:1012D00003180800031976294E089F24031C6C3458
:1012E0004F089F24031D031C78296C3460107A2951
:1012F000611860147D08C1007C08C0000F306322B3
:10130000CE293524031808000319902950089F247A
:10131000031C6C3451089F24031D031C92296C3458
:10132000E0109429E118E0147D08C3007C08C20095
:1013300011306322CE29232403180800C4007D083D
:10134000C5007C040319A829AA21031C8014CE29F6
:10135000C417CE29DC308400520DD21F0800F830AB
:1013600080057830D2000800EC230318C1298008DA
:10137000031D6634643C031C7234740DC6008A1568
:10138000822DC601CA2935240318C929FC1F7C1FD8
:10139000CD2959102D308A15E02CD7218A156A2DB8
:1013A00030306D1DD7296116031C6112DE295914D6
:1013B000D914031CD9103C30DF212E308317840050
:1013C0007C088000840A7D088000831308003608AA
:1013D000053C031D6634062403180800C7008A155F
:1013E000D52CEC2303180800BE00173C031C7234F4
:1013F00000083A3C031D6634840AED230318663462
:10140000BF003B3C031C723400082F3C031D6634B4
:10141000840A30300002031D031C6C34F400F839D8
:10142000031D6C34840A8008031D6634F40E031017
:10143000740DBE04AA21031C00143E081F39F400D9
:101440008A1590253F08F4003A308F252F30E0248C
:101450003E0EF400740C0739DE2C3608043C031DE4
:1014600066346D12ED122308313C0319ED16FE3976
:1014700003196D165A228A15282E1B21031C0800F9
:1014800062100319621419293608043C031D6634DE
:101490002308393C093C031C6C34033EF400E0385B
:1014A00083169D008312E0306A057404EA006B2203
:1014B0008A15FD2D6D08F4000E306D2A8A11CD2598
:1014C0008A15831208005E228D007C0870225E223D
:1014D0008D0A7D08702AF40000305E228D007408A9
:1014E000031783160C1483120C060319832A8C0627
:1014F00083160C158B1355308D00AA308D008C147B
:101500008B170C1183120C0803130800EC2303182B
:101510000800031972348008031D66345A12E03043
:101520008A11DB258A1503199A2A03170D0F902AB1
:10153000031369346F228A15812DEC2303180800E8
:10154000031972348008031D6634A922031D0800A4
:10155000BF29F400E0308A11DB258A1574060319CF
:10156000702A03170D0FAB2A03136F343608043C9F
:10157000031D6634E3012308433A0319E3160A3ACC
:10158000031963171A3A03196316E308031D631658
:101590006308F4000D306D228A15372E3608043C9E
:1015A000031D66341B21031CEF2A6D14ED067F0614
:1015B0000139031DDF2AFF14E122FF18A3005A227C
:1015C000AD2B121950347F106D1CFF197F1403309E
:1015D0007F18063083169C008312FF100800230832
:1015E000523C031D6C346B148610831686108A11CE
:1015F000002823084F3A031D1D3A031D6C346D115A
:10160000231C6D15DF2AEC2303180F2B8008031D04
:101610006634643C031C7234643CD7009B2AD717A1
:10162000CA298A15CF2D8A15622EEC2303180800CB
:1016300003196C34F5003A300002031D6634840A45
:10164000FC01ED230318080080080319332BFC006C
:101650002C300002031D6634840AED2303180800B1
:101660008008031D6634FD007508582303193C2BC0
:1016700003015823031D693483177D0880008413F8
:101680007C08800083138417750880008A158125E3
:101690003A30E0247C2DEC230318080003196C3445
:1016A0008008031D66345823031D6F348001BF2951
:1016B000F400E030840000087406031908000130CB
:1016C0008407831C5B2B0034EC2303180800031DE4
:1016D000FC00FC1B6C348008031D66348A11502307
:1016E0008A1580047C088C23740470227C089B2A51
:1016F000EC2303180800031DFC00FC1B6C3480085D
:10170000031D66348A1150238A15FF3A80057C0830
:101710008C23F4097405752B9623F50E750D750D44
:101720001F39D03E8A11DB258A1508000310F50009
:101730000130F5180430F4007518F40D7519F40E25
:10174000740808001B21031C080020302318EA0439
:10175000FF3A231CEA056A086B222308CB291B21C8
:10176000031C08004030A62B3608063C031D6634D7
:101770000130F4002308483A0319C42B1F3A031D13
:1017800066340430F40012302406423A0319CD2B9B
:10179000123A031D66340310F40D2508533A031959
:1017A000D52B1B3A031D6634F40E7408CC042308B1
:1017B0008A15E0242408E0242508E02CEC230318F3
:1017C00008008008031D6634CD006117E701E801B9
:1017D0009B2A233084000800E9230008393C093C97
:1017E000031C7B2CF400840A0008393C093C031CD0
:1017F000042CB1001A30740203187234740889245E
:101800003107031CF22B723474080800E9231024FA
:1018100003180800F400F40E1024031C74040800DC
:1018200030300002031C7B2CF63E031C1F2CDF39DA
:10183000F93E031C7B2CFA3E03186634063E0A3E32
:10184000840A0310080031248314031808009C3E06
:101850008310031C742C031D7234FD08031D7234A5
:10186000742CE92300082D3C3B2CE9235917000870
:101870002D3C03193E2C5913023C0319840AED2315
:1018800003180800FC0100080319612C2E3C031DFD
:101890007B2C0730FE00840A00080319612C393CB8
:1018A000093C031C7B2C7E198924FE18FC070310BD
:1018B000FE0CFE080319031C4B2CFB3E0318FC0A0C
:1018C0004B2C591F6A2CF409FC080319792C7C084D
:1018D000643CFC00FD018F240318F40AB208031DC8
:1018E000013EFD007408FC007C080319FD0803108C
:1018F0000800F40A6A2C03146634FC01FD008524F8
:101900008524FD070318FC0A08000310FD0DFC0DDB
:101910000800B200B207B20DB207320D0800103055
:10192000FE00B101B201FD0DFC0DB20D64303202BA
:101930000318B200B10DFE0B932C310808007C0295
:10194000031D0800FD0808002108323A031D633416
:101950002008433A0319B62C0B3A031D63341B21AC
:10196000031C0800621203196216192923240318A4
:1019700008008316DA007D08DB007C040319C42C00
:0E1980005C158312AA21CE29DA178312CE2914
:02198E008A11BC
:10199000DB258A1503190800E02403170D0AC72C5C
:1019A000C7240D30E0240A30E02CF500750ED92450
:1019B00075080F39F63E0318073E0A3ED917303E28
:1019C000CB0803190C1EE62C99000034840037085C
:1019D0004B07B03E031C503E903E040684060406AE
:1019E0008317800083134B08503A031DCB0A003441
:1019F0005430761B42305A190800E0247608D5246A
:101A00007708D5247808D5247908D524D12CDD1879
:101A100008008E30C7246408D524D1244530641CC6
:101A2000FB24E40147080319080084000008F400BF
:101A30004708D5243D30E0247408D524D12C4A0829
:101A40004A07103E840083170008FC00840A00083F
:101A5000FD0083130D308A004A08CA0A323E03187B
:101A60008A0A8200542D6C2D542D6C2D6C2D6C2DFA
:101A70007C2D6C2D6C2D6C2D6C2D6C2D6C2D6C2D8E
:101A80006C2D6A2D6C2D6C2DA02D7C2D7C2D6C2D3C
:101A90006C2D542D802D802DA22DA22DA22DA22D96
:101AA000A22DA22DA22DA22D7C0859252F30E02495
:101AB0007D08F4000830FE00F40D6125FE0B5C2D5E
:101AC0000800140DDE2CFC09FD09FD0A0319FC0AAF
:101AD0002D30E02CFC1B63257D0F702DFC0AFD01D1
:101AE0007C0881256430F4007D087526FD1BFC0A06
:101AF0007C08F4002E308F2D7C0881252F30E024C7
:101B00007D08F4007408D9139C3E031C912DF40049
:101B10009C3E031C8E2DF40032308F2D3130E0249A
:101B2000D917FE017408F400F63E031C992DFE0A35
:101B3000932D7E080319D91B9E257408D917DE2C16
:101B4000FC1B63251030FE00B101B201B301AE2DC4
:101B50003308BF25B3003208BF25B200FD0DFC0DD0
:101B6000B30DB20DB10DFE0BA82DD9133108C6254A
:101B70003208C6253308C625D91B0800DE2C333EA3
:101B8000F400F41DFD3EF41FD03E0800F400740E76
:101B9000CA2574080F390319D91BDE2C0800360832
:101BA000043C031D66340D308A0023085A3C193C5E
:101BB000031C6C34DE3E03188A0A82001334953409
:101BC000A8345D2E6C346C344F2E6C34492E6C343A
:101BD0006C3404341A2E6C34002E2E2E1F2E362E0A
:101BE000522E412E6C34FC2D272E6C346C346C3408
:101BF0002308E0243D30E02CF8256A08FD3ED92C6E
:101C0000F825DF084E300319E02C3A083B046E300B
:101C10000319E02C550E55060F39DF1ED50654303A
:101C2000D51C43305F1D2038E0243A08FC003B08F7
:101C3000FD006C2DF82547307F184D30E02CF8253D
:101C40007F0E0739B03E8A11DB258A15E02CF82576
:101C50003030ED1A31306D1E4130E02CF8255D1E1C
:101C6000843478305D1B7F30C7248734F8254430B6
:101C7000631A5330E31B5230E31A4330631B49307D
:101C8000E02CF8256A0EF400F40CF40C6125F40C39
:101C9000612DF825050D803E6125050D612DF82586
:101CA000580ED52CF82502308A11DB258A15FC0048
:101CB0008A11D9258A15FD006C2DF8254F306D1934
:101CC0005230E02C3608043C031D66342308313CB6
:101CD000013C031C6C340319712ECA0159155A15A5
:101CE000732E59115A118A15DE2CFC01FD01083A98
:101CF000FE00083AFE060310FD0DFC0DF40D03185E
:0C1D0000FD070318FC0AFE0B7B2E0800F8
:041D0C006217E21365
:101D10008B266213E2170E308A005808E21B580E19
:101D20000739953E03188A0A8200A02EAC2EAF2EEA
:101D3000AF2EAF2EA02EA02E9D2EF030E21FD80584
:101D40006208C039831685048312080062093F388F
:101D50008316850583120800A62685050800A62699
:101D6000FF3A850408006217E213B8266213E217EF
:101D70000E308A005808E21B580E0739C23E03187D
:101D80008A0A8200080008000800CA2ED12EE22E1E
:101D9000E42ED82E0508E21805096205C03985062B
:101DA00008000508621905096205C03985060800A2
:101DB000DB1E0800B8088A116F278A15003803193E
:101DC000DB1208000509E52E05086205C039031D70
:101DD000EF2EE21D0800E211FC01FD01F92EE219CF
:101DE0000800E21502308A11DB25FC00D925FD0030
:0A1DF00001308A1531218A15080020
:101E0000031E08008B138316031360308F002730E6
:101E10008600E730850007309B00E6309D000630E5
:101E20009C00D73081001930990026309800831229
:101E300098171816FF30860081010130E327C2276A
:101E40001030E3278C1E0800C827031D08008317E5
:101E500010308400F001C8270319282F0B3A03190A
:101E6000392F013A0319C82772088000F007840A45
:101E70002B2FF008031D822F031712088D00130863
:101E80008F00143084001108F1000F308A00100810
:101E9000083C083C031C822F8207592F5F2F872F95
:101EA000992FA12FAC2F822F822FED2F0101000F30
:101EB000FF0F56308D000F308F00123084008316D4
:101EC0008C170C140000000083120C088000840A98
:101ED0000E088000840A8D0A03198F0AF10B5F2F08
:101EE00010300402F1000F30C227F00110308400DE
:101EF0000008F007840AB527F10B782F7009013E1E
:101F0000B527C2270313C8270319282F822F84302F
:101F1000D127FC308D050430F40000088C00840AC1
:101F200000088E00840AD527F40B8D2FF10B872F24
:101F3000722F9430D1271F308D04D527F10B992FA4
:101F4000722F83168C010C1483120C088000840AF3
:101F50008D0AF10BA12F702F0430D12700088C00BF
:101F6000840AD527F10BAC2F722FF3000F3A031917
:101F7000BF2F0B3A0319BF2F013A031DC12F0530A4
:101F8000C2277308640003130C1EC42F9900043485
:101F90009818ED2F64008C1ECA2F1A08F2000F3A11
:101FA000080083168C0083120800640083165530E5
:101FB0008D00AA308D008C148C18DC2F83128D0AB2
:101FC00003198F0A013464008C1A08000B1DE32FDB
:101FD0000B11FF3E031DE32F0434031386108316F9
:101FE0008610FF308500860081009B0007309C0032
:101FF00098019901830198018B018A0164000028EE
:02400E00742F0D
:02401000FF3F70
:1042000067000000100000004C003D004600580010
:104210004F004D005000430000000000000000006F
:1042200000000000000041003D004F0070006500EC
:104230006E0054006800650072006D0020004700A9
:10424000610074006500770061007900200035008E
:104250002E00360000005700440054002000720079
:1042600065007300650074002100000054006800C0
:10427000650072006D006F007300740061007400CF
:10428000200064006900730063006F006E006E0020
:10429000650063007400650064000000540068005D
:1042A000650072006D006F0073007400610074009F
:1042B000200063006F006E006E00650063007400F4
:1042C0006500640000004E004700000053004500F8
:1042D00000004E00530000004200560000004E0057
:1042E000460000004F00520000004F004500000053
:1042F0004D0065006400690075006D000000480015
:1043000069006700680000004C006F007700200023
:1043100070006F00770065007200000045007200B9
:1043200072006F0072002000000042003D0031006A
:1043300034003A00300038002000310038002D00F1
:10434000310031002D003200300032003200000018
:1043500043003D00340020004D0048007A0000007A
:0E4360004500430053004C005000420057003F
:1043A000000000000000000000000000000000000D
:1043B00000000000000000000000000000000000FD
:1043C0007400750076007700780079007A007B0031
:1043D00000000000000000000000000000000000DD
:1043E00000000000000000000000000000000000CD
:1043F00000000000000000000000000000000000BD
:046000000034003434
:00000001FF
